:100000000C9435000C945D000C945D000C945D0024
:100010000C945D000C945D000C945D000C945D00EC
:100020000C945D000C945D000C945D000C945D00DC
:100030000C945D000C945D000C945D000C945D00CC
:100040000C9456060C945D000C94C6060C94A00605
:100050000C945D000C945D000C945D000C945D00AC
:100060000C945D000C945D00F80611241FBECFEFC8
:10007000D8E0DEBFCDBF11E0A0E0B1E0E8ECF1E1F7
:1000800002C005900D92AC34B107D9F722E0ACE480
:10009000B1E001C01D92AB32B207E1F710E0C5E359
:1000A000D0E004C02197FE010E94C808C433D107E4
:1000B000C9F70E9434070C94E2080C9400003FB783
:1000C000F89480916D0190916E01A0916F01B091B3
:1000D000700126B5A89B05C02F3F19F00196A11D00
:1000E000B11D3FBFBA2FA92F982F8827BC01CD0182
:1000F000620F711D811D911D42E0660F771F881FE1
:10010000991F4A95D1F708954F925F926F927F920F
:100110009F92AF92BF92CF92DF92EF92FF920F9396
:100120001F93CF93DF9300D01F92CDB7DEB7D82EA9
:100130008091210290912202A0912302B091240289
:10014000892B8A2B8B2BD9F00E945F0000917D01B7
:1001500010917E0120917F0130918001601B710B15
:10016000820B930B00912102109122022091230215
:10017000309124026017710782079307C8F20E942A
:100180005F0060937D0170937E0180937F01909367
:100190008001E0912902F0912A02309759F04091B4
:1001A00025025091260260912702709128028D2D20
:1001B0000995D82EE0907B01F0907C014D2C512CBC
:1001C000712C612CE114F10409F459C0D7011C967B
:1001D000CC901C9780911F0290912002843691054B
:1001E00010F41C961C92D701ED91FC91A280B38073
:1001F00019821A821B82DD2079F1F701369610E010
:1002000000E02191222319F19280992001F130E040
:1002100050E040E02F5F3F4F4F4F5F4FC301B201AF
:100220000E945C089B01AC01892D90E0B0E0A0E049
:10023000BC01CD016F5F7F4F8F4F9F4F0E945C08C5
:10024000A1E0B0E0AC0FBD1FA00FB11F8C930F5FFA
:100250001F4F03301105A9F609811A812B81F7017F
:100260004585568562817381C701F5010995D701DE
:100270001C96CC921C971496ED90FC90A3CF809185
:10028000790190917A019C012F5F3F4F30937A0161
:100290002093790149970CF44AC08FB7F8942091C4
:1002A00071013091720140917301509174018FBFBF
:1002B0008091750190917601A0917701B0917801BC
:1002C000281B390B4A0B5B0B21F421E030E040E0A6
:1002D00050E0E0917901F0917A0188EE93E0E89F97
:1002E000B001E99F700DF89F700D1124072E000CCE
:1002F000880B990B0E9480083093200220931F02E4
:1003000010927A01109279012FB7F89480917101BF
:1003100090917201A0917301B09174012FBF8093ED
:10032000750190937601A0937701B09378010F90B7
:100330000F900F90DF91CF911F910F91FF90EF9051
:10034000DF90CF90BF90AF909F907F906F905F9025
:100350004F9008958F929F92AF92BF92CF92DF926B
:10036000EF92FF920E945F004B015C018CE2C82E6D
:10037000DD24D394E12CF12C0E945F0068197909E7
:100380008A099B09683E734081059105A8F321E025
:10039000C21AD108E108F10888EE880E83E0981EA1
:1003A000A11CB11CC114D104E104F10429F7FF9090
:1003B000EF90DF90CF90BF90AF909F908F90089577
:1003C00080E991E00895AF92BF92CF92DF92EF92D1
:1003D000FF920F931F93CF93DF936C017B018B01EF
:1003E000040F151FEB015E01AE18BF08C017D1073F
:1003F00059F06991D601ED91FC910190F081E02DC9
:10040000C6010995892B79F7C501DF91CF911F911D
:100410000F91FF90EF90DF90CF90BF90AF90089535
:10042000FC01538D448D252F30E0842F90E0821BFA
:10043000930B541710F0CF96089501970895FC017F
:10044000918D828D981761F0A28DAE0FBF2FB11DD7
:100450005D968C91928D9F5F9F73928F90E008952F
:100460008FEF9FEF0895FC01918D828D981731F0E9
:10047000828DE80FF11D858D90E008958FEF9FEF3D
:100480000895FC01918D228D892F90E0805C9F4F13
:10049000821B91098F739927089581E891E00E944A
:1004A000410221E0892B09F420E0822F089580E0A9
:1004B00090E0892B29F00E944D0281110C940000DC
:1004C0000895FC01A48DA80FB92FB11DA35ABF4FE9
:1004D0002C91848D90E001968F739927848FA68943
:1004E000B7892C93A089B1898C91837080648C9397
:1004F000938D848D981306C00288F389E02D808146
:100500008F7D80830895EF92FF920F931F93CF9377
:10051000DF93EC0181E0888F9B8D8C8D98131AC03E
:10052000E889F989808185FF15C09FB7F894EE8925
:10053000FF896083E889F989808183708064808382
:100540009FBF81E090E0DF91CF911F910F91FF90CD
:10055000EF900895F62E0B8D10E00F5F1F4F0F7375
:100560001127E02E8C8D8E110CC00FB607FCFACF30
:10057000E889F989808185FFF5CFCE010E9461026B
:10058000F1CFEB8DEC0FFD2FF11DE35AFF4FF08201
:100590009FB7F8940B8FEA89FB8980818062CFCF67
:1005A000CF93DF93EC01888D8823B9F0AA89BB89AA
:1005B000E889F9898C9185FD03C0808186FD0DC095
:1005C0000FB607FCF7CF8C9185FFF2CF808185FFB6
:1005D000EDCFCE010E946102E9CFDF91CF91089566
:1005E0000F931F93CF93DF9320914D012F5F322FF5
:1005F000377030934D0120FF2BC020E831FD20647F
:10060000347009F02062205FFC01EC01239600E0C9
:1006100011E06485662329F070E0C8010E946C082F
:100620006F5F6187822F869F080E80E0811D1124F5
:10063000811110C01682662311F0615061873196D6
:10064000EC17FD0731F7DF91CF911F910F910895BE
:1006500020E0D4CF81508683EECF4F925F926F928D
:100660007F929F92AF92BF92DF92EF92FF920F9391
:100670001F93CF93DF932C01EB010E945F00F201E7
:1006800027853089621B730B6A307105B0F3F894CB
:100690008A819B81181619060CF0C9C1E881F9817D
:1006A00068B1646058B15B7F58B9DA848F819D2D41
:1006B000981B9F832F85022E000C330BAA81BB81D0
:1006C0007D85FC84EE847F5FF394E3946E80988450
:1006D000B984AB84118180E0082F482F4181112714
:1006E00088944111490F08F44FEF9195889470FD5B
:1006F000140F1795889471FD140F1795889472FD47
:10070000140F1795889473FD140F1795889474FD32
:10071000140F1795889475FD140F1795889476FD1E
:10072000140F1795889477FD140F17958894842FCC
:100730007111812F9D0D182F002C68B900C017FF73
:1007400058B940818827889400C000C0002C58B94F
:100750004111460D00C0002C68B900C016FF58B901
:1007600008F44FEF6194889400C000C0002C58B981
:10077000F0FC840F00C0002C68B900C015FF58B908
:1007800087958894F1FC840F00C000C0002C58B9F4
:100790008795889400C0002C68B900C014FF58B930
:1007A000F2FC840F8795889400C000C0002C58B9D3
:1007B000F3FC840F00C0002C68B900C013FF58B9C7
:1007C00087958894F4FC840F00C000C0002C58B9B1
:1007D0008795889400C0002C68B900C012FF58B9F2
:1007E000F5FC840F8795889400C000C0002C58B990
:1007F000F6FC840F00C0002C68B900C011FF58B986
:1008000087958894F7FC840F00C000C0002C58B96D
:100810008795889400C0002C68B900C010FF58B9B3
:10082000142FF110182F6B0C00C000C0002C58B909
:1008300000C000C0002C68B900C017FF58B9428141
:100840008827889400C000C0002C58B94111490D78
:1008500000C0002C68B900C016FF58B908F44FEF6B
:10086000E20FF31F00C000C0002C58B9E0FC840F59
:1008700000C0002C68B900C015FF58B9879588944E
:10088000E1FC840F00C000C0002C58B98795889403
:1008900000C0002C68B900C014FF58B9E2FC840FF6
:1008A0008795889400C000C0002C58B9E3FC840FE1
:1008B00000C0002C68B900C013FF58B98795889410
:1008C000E4FC840F00C000C0002C58B987958894C0
:1008D00000C0002C68B900C012FF58B9E5FC840FB5
:1008E0008795889400C000C0002C58B9E6FC840F9E
:1008F00000C0002C68B900C011FF58B987958894D2
:10090000E7FC840F00C000C0002C58B9879588947C
:1009100000C0002C68B900C010FF58B9142FE110B6
:10092000182F919400C000C0002C58B99A0C00C038
:1009300000C068B900C017FF58B941818827889462
:1009400000C000C0002C58B94111490F00C0002C54
:1009500068B900C016FF58B908F44FEF9195889414
:1009600000C000C0002C58B970FD840F00C0002CDE
:1009700068B900C015FF58B98795889471FD840F38
:1009800000C000C0002C58B98795889400C0002C86
:1009900068B900C014FF58B972FD840F8795889418
:1009A00000C000C0002C58B973FD840F00C0002C9B
:1009B00068B900C013FF58B98795889474FD840FF7
:1009C00000C000C0002C58B98795889400C0002C46
:1009D00068B900C012FF58B975FD840F87958894D7
:1009E00000C000C0002C58B976FD840F00C0002C58
:1009F00068B900C011FF58B98795889477FD840FB6
:100A000000C000C0002C58B98795889400C0002C05
:100A100068B900C010FF58B9142F7111182F9D0D1F
:100A200000C000C0002C58B9119709F086CE4A8149
:100A30005B8120EE31E0DA010E94A208DC01CB01EB
:100A4000F4E0B695A79597958795FA95D1F730E09C
:100A500020E0B901EAE94E9F040E611D5E9F600D22
:100A6000711D1124650F711D860F971FA11DB11DEA
:100A7000893EE3E09E07A105B10508F434C0885E15
:100A80009340A109B10942E0B695A795979587953E
:100A90004A95D1F747E0849F080E211D949F200DB1
:100AA000311D1124290F311D60914C0170E0860F1A
:100AB000971F820F931F40917101509172016091B5
:100AC000730170917401292F3327420F531F611D49
:100AD000711D409371015093720160937301709383
:100AE000740180934C0178940E945F00F201708B36
:100AF0006787DF91CF911F910F91FF90EF90DF906B
:100B0000BF90AF909F907F906F905F904F900895AF
:100B100081E090E008953A9A08956F927F928F92C3
:100B2000CF92DF92EF92FF920F931F93CF93DF93B9
:100B3000CDB7DEB762970FB6F894DEBF0FBECDBF5C
:100B40006C017A013801822EDC011C962C91CA01BD
:100B500057FF04C088279927841B950B7A836983E4
:100B60009C838B839E838D836D867E868F862130CA
:100B700049F5CE0101960E94F00283E0888B1A8A23
:100B8000198AF7FE02C08DEF888BD601ED91FC919A
:100B90000684F785E02DBE016F5F7F4FC601099582
:100BA00062960FB6F894DEBF0FBECDBFDF91CF9136
:100BB0001F910F91FF90EF90DF90CF908F907F90DB
:100BC0006F9008951C861B861A86198618861F82C8
:100BD000D4CFEF92FF920F931F93CF93DF93CDB7B4
:100BE000DEB762970FB6F894DEBF0FBECDBF7C01B3
:100BF000DC011C968C917A8369835C834B835E83D2
:100C00004D830D871E872F878130F9F4CE01019621
:100C10000E94F002188A1A8A198AD701ED91FC9174
:100C20000684F785E02DBE016F5F7F4FC7010995F0
:100C300062960FB6F894DEBF0FBECDBFDF91CF91A5
:100C40001F910F91FF90EF9008951C861B861A86C6
:100C5000198618861F82DECF90E080E00895FC019F
:100C60008585968508950F931F93CF93DF9300D0CA
:100C70001F92CDB7DEB7AB0119821A821B82DC014D
:100C8000ED91FC910190F081E02D00E010E020E07A
:100C9000BE016F5F7F4F09950F900F900F90DF910E
:100CA000CF911F910F9108950E94DD081F920F921E
:100CB0000FB60F9211242F933F938F939F93AF936F
:100CC000BF938091710190917201A0917301B091D5
:100CD000740130916C0123E0230F2D3758F50196F4
:100CE000A11DB11D20936C0180937101909372013D
:100CF000A0937301B093740180916D0190916E0186
:100D0000A0916F01B09170010196A11DB11D80935A
:100D10006D0190936E01A0936F01B0937001BF912C
:100D2000AF919F918F913F912F910F900FBE0F9098
:100D30001F90189526E8230F0296A11DB11DD2CF52
:100D40001F920F920FB60F9211242F933F934F9340
:100D50005F936F937F938F939F93AF93BF93EF9323
:100D6000FF9381E891E00E946102FF91EF91BF91B2
:100D7000AF919F918F917F916F915F914F913F9133
:100D80002F910F900FBE0F901F9018951F920F92EA
:100D90000FB60F9211242F938F939F93EF93FF938E
:100DA000E0919101F09192018081E0919701F091A1
:100DB000980182FD1BC0908180919A018F5F8F7393
:100DC00020919B01821741F0E0919A01F0E0EF57EA
:100DD000FE4F958F80939A01FF91EF919F918F9194
:100DE0002F910F900FBE0F901F9018958081F4CF18
:100DF000E1E8F1E01382128288EE93E0A0E0B0E037
:100E000084839583A683B7838AE291E0918380836C
:100E100085EC90E09587848784EC90E097878687BF
:100E200080EC90E0918B808B81EC90E0938B828BB7
:100E300082EC90E0958B848B86EC90E0978B868B90
:100E4000118E128E138E148EEEE1F2E08FEF8083FE
:100E500012821182148613868FEF9FEFDC01878345
:100E60009087A187B2870895789484B5826084BD05
:100E700084B5816084BD85B5826085BD85B581609E
:100E800085BD80916E00816080936E00109281001C
:100E900080918100826080938100809181008160D7
:100EA0008093810080918000816080938000809198
:100EB000B10084608093B1008091B0008160809324
:100EC000B00080917A00846080937A0080917A00EB
:100ED000826080937A0080917A00816080937A00AA
:100EE00080917A00806880937A001092C100E0912E
:100EF0009101F091920182E08083E0918D01F09167
:100F00008E011082E0918F01F09190018FEC80832F
:100F100010929901E0919501F091960186E080830D
:100F2000E0919301F0919401808180618083E09150
:100F30009301F0919401808188608083E091930116
:100F4000F0919401808180688083E0919301F09119
:100F5000940180818F7D808380916101811145C0E2
:100F600010925301109252018FEF8093560180939B
:100F70005701809358018093590180935A018093BF
:100F80005B0181E080935C0110925E0110925D0133
:100F9000109255011092540180917B0190917C0137
:100FA000892B31F480E591E090937C0180937B0163
:100FB000E0914E01F0914F01309721F080E591E0F2
:100FC0009583848380E591E090934F0180934E0157
:100FD0001092600110925F0186E191E090935101BF
:100FE0008093500181E0809361013A9A89E691E013
:100FF000909353018093520181E090E090935E01C1
:1010000080935D018091210290912202A0912302A0
:10101000B0912402843C29E09207A105B10520F497
:1010200084EC99E0A0E0B0E080932102909322024A
:10103000A0932302B09324028FEF80936901109252
:101040006A0110926B0180911E020E948400CFEF12
:1010500000E010E04FE050E068E371E081E891E0EB
:101060000E94E30142E050E068E471E081E891E031
:101070000E94E301C093690110926A0110926B0112
:1010800080911E020E9484000E94AA0110926901B0
:1010900010926A0110926B0180911E020E948400DE
:1010A0000E94AA0101151105A9F20E944D02882390
:1010B00089F20E940000CECFDB018F939F930E94A4
:1010C000A908BF91AF91A29F800D911DA39F900D84
:1010D000B29F900D1124089597FB072E16F40094EB
:1010E00007D077FD09D00E94B40807FC05D03EF474
:1010F000909581959F4F0895709561957F4F0895C4
:10110000A1E21A2EAA1BBB1BFD010DC0AA1FBB1F0B
:10111000EE1FFF1FA217B307E407F50720F0A21B7D
:10112000B30BE40BF50B661F771F881F991F1A94EA
:1011300069F760957095809590959B01AC01BD0114
:10114000CF0108950E94CE08B7FF0895821B930B2C
:1011500008950E94CE08A59F900DB49F900DA49F66
:10116000800D911D11240895AA1BBB1B51E107C0DE
:10117000AA1FBB1FA617B70710F0A61BB70B881F27
:10118000991F5A95A9F780959095BC01CD010895B6
:10119000EE0FFF1F0590F491E02D0994A29FB0017E
:1011A000B39FC001A39F700D811D1124911DB29F9B
:1011B000700D811D1124911D089581E090E0F89437
:0811C0000C94E208F894FFCF43
:1011C8000000000054065406540633062F0688050E
:1011D8002C0600000000E9058D058B0533062F0657
:1011E8008805E0012D03000000008302E3011002DE
:1011F800D00241021F02330248656C6C6F20576FA2
:0C120800726C6431323321000D0A0000CA
:00000001FF
